{
  "contractName": "AuctionContract",
  "abi": [
    {
      "constant": true,
      "inputs": [
        {
          "internalType": "uint256",
          "name": "",
          "type": "uint256"
        }
      ],
      "name": "auctionItems",
      "outputs": [
        {
          "internalType": "uint256",
          "name": "highestBid",
          "type": "uint256"
        },
        {
          "internalType": "address",
          "name": "highestBidderAddress",
          "type": "address"
        },
        {
          "internalType": "address payable",
          "name": "lister",
          "type": "address"
        },
        {
          "internalType": "string",
          "name": "itemName",
          "type": "string"
        },
        {
          "internalType": "uint256",
          "name": "auctionEnd",
          "type": "uint256"
        },
        {
          "internalType": "bool",
          "name": "claimed",
          "type": "bool"
        }
      ],
      "payable": false,
      "stateMutability": "view",
      "type": "function"
    },
    {
      "constant": true,
      "inputs": [],
      "name": "itemCount",
      "outputs": [
        {
          "internalType": "uint256",
          "name": "",
          "type": "uint256"
        }
      ],
      "payable": false,
      "stateMutability": "view",
      "type": "function"
    },
    {
      "constant": false,
      "inputs": [
        {
          "internalType": "string",
          "name": "_itemName",
          "type": "string"
        },
        {
          "internalType": "uint256",
          "name": "_auctionDuration",
          "type": "uint256"
        }
      ],
      "name": "addListing",
      "outputs": [],
      "payable": false,
      "stateMutability": "nonpayable",
      "type": "function"
    },
    {
      "constant": false,
      "inputs": [
        {
          "internalType": "uint256",
          "name": "_itemId",
          "type": "uint256"
        }
      ],
      "name": "placeBid",
      "outputs": [],
      "payable": true,
      "stateMutability": "payable",
      "type": "function"
    },
    {
      "constant": false,
      "inputs": [
        {
          "internalType": "uint256",
          "name": "_itemId",
          "type": "uint256"
        }
      ],
      "name": "withdraw",
      "outputs": [],
      "payable": false,
      "stateMutability": "nonpayable",
      "type": "function"
    }
  ],
  "bytecode": "0x608060405234801561001057600080fd5b50610c84806100206000396000f3fe60806040526004361061004a5760003560e01c80632e1a7d4d1461004f5780636bfb0d011461008a57806381d46f13146100b55780639979ef4514610187578063d2c069f0146101b5575b600080fd5b34801561005b57600080fd5b506100886004803603602081101561007257600080fd5b81019080803590602001909291905050506102e8565b005b34801561009657600080fd5b5061009f61063b565b6040518082815260200191505060405180910390f35b3480156100c157600080fd5b50610185600480360360408110156100d857600080fd5b81019080803590602001906401000000008111156100f557600080fd5b82018360208201111561010757600080fd5b8035906020019184600183028401116401000000008311171561012957600080fd5b91908080601f016020809104026020016040519081016040528093929190818152602001838380828437600081840152601f19601f82011690508083019250505050505050919291929080359060200190929190505050610641565b005b6101b36004803603602081101561019d57600080fd5b81019080803590602001909291905050506106df565b005b3480156101c157600080fd5b506101ee600480360360208110156101d857600080fd5b81019080803590602001909291905050506109c7565b604051808781526020018673ffffffffffffffffffffffffffffffffffffffff1673ffffffffffffffffffffffffffffffffffffffff1681526020018573ffffffffffffffffffffffffffffffffffffffff1673ffffffffffffffffffffffffffffffffffffffff1681526020018060200184815260200183151515158152602001828103825285818151815260200191508051906020019080838360005b838110156102a857808201518184015260208101905061028d565b50505050905090810190601f1680156102d55780820380516001836020036101000a031916815260200191505b5097505050505050505060405180910390f35b60006102f382610ae8565b90503373ffffffffffffffffffffffffffffffffffffffff168160030160009054906101000a900473ffffffffffffffffffffffffffffffffffffffff1673ffffffffffffffffffffffffffffffffffffffff1614156104be57428160050154106103c6576040517f08c379a00000000000000000000000000000000000000000000000000000000081526004018080602001828103825260148152602001807f41756374696f6e206861736e277420656e64656400000000000000000000000081525060200191505060405180910390fd5b600015158160060160009054906101000a900460ff16151514610451576040517f08c379a000000000000000000000000000000000000000000000000000000000815260040180806020018281038252601d8152602001807f41756374696f6e2066756e647320616c726561647920636c61696d656400000081525060200191505060405180910390fd5b60018160060160006101000a81548160ff0219169083151502179055503373ffffffffffffffffffffffffffffffffffffffff166108fc82600001549081150290604051600060405180830381858888f193505050501580156104b8573d6000803e3d6000fd5b50610637565b3373ffffffffffffffffffffffffffffffffffffffff168160010160009054906101000a900473ffffffffffffffffffffffffffffffffffffffff1673ffffffffffffffffffffffffffffffffffffffff161415610567576040517f08c379a0000000000000000000000000000000000000000000000000000000008152600401808060200182810382526023815260200180610c2d6023913960400191505060405180910390fd5b60008160020160003373ffffffffffffffffffffffffffffffffffffffff1673ffffffffffffffffffffffffffffffffffffffff168152602001908152602001600020819055503373ffffffffffffffffffffffffffffffffffffffff166108fc8260020160003373ffffffffffffffffffffffffffffffffffffffff1673ffffffffffffffffffffffffffffffffffffffff168152602001908152602001600020549081150290604051600060405180830381858888f19350505050158015610635573d6000803e3d6000fd5b505b5050565b60005481565b60006001600080548152602001908152602001600020905060008160000181905550338160030160006101000a81548173ffffffffffffffffffffffffffffffffffffffff021916908373ffffffffffffffffffffffffffffffffffffffff160217905550828160040190805190602001906106be929190610b87565b50814201816005018190555060016000808282540192505081905550505050565b60006106ea82610ae8565b90503373ffffffffffffffffffffffffffffffffffffffff168160030160009054906101000a900473ffffffffffffffffffffffffffffffffffffffff1673ffffffffffffffffffffffffffffffffffffffff1614156107b2576040517f08c379a000000000000000000000000000000000000000000000000000000000815260040180806020018281038252601f8152602001807f43616e277420626964206f6e20616e206974656d20796f75206c69737465640081525060200191505060405180910390fd5b4281600501541161082b576040517f08c379a00000000000000000000000000000000000000000000000000000000081526004018080602001828103825260118152602001807f41756374696f6e2068617320656e64656400000000000000000000000000000081525060200191505060405180910390fd5b8060000154348260020160003373ffffffffffffffffffffffffffffffffffffffff1673ffffffffffffffffffffffffffffffffffffffff1681526020019081526020016000205401116108e7576040517f08c379a00000000000000000000000000000000000000000000000000000000081526004018080602001828103825260188152602001807f546865726520697320612068696768657220626964646572000000000000000081525060200191505060405180910390fd5b348160020160003373ffffffffffffffffffffffffffffffffffffffff1673ffffffffffffffffffffffffffffffffffffffff168152602001908152602001600020600082825401925050819055508060020160003373ffffffffffffffffffffffffffffffffffffffff1673ffffffffffffffffffffffffffffffffffffffff168152602001908152602001600020548160000181905550338160010160006101000a81548173ffffffffffffffffffffffffffffffffffffffff021916908373ffffffffffffffffffffffffffffffffffffffff1602179055505050565b60016020528060005260406000206000915090508060000154908060010160009054906101000a900473ffffffffffffffffffffffffffffffffffffffff16908060030160009054906101000a900473ffffffffffffffffffffffffffffffffffffffff1690806004018054600181600116156101000203166002900480601f016020809104026020016040519081016040528092919081815260200182805460018160011615610100020316600290048015610ac55780601f10610a9a57610100808354040283529160200191610ac5565b820191906000526020600020905b815481529060010190602001808311610aa857829003601f168201915b5050505050908060050154908060060160009054906101000a900460ff16905086565b6000808210158015610afb575060005482105b610b6d576040517f08c379a000000000000000000000000000000000000000000000000000000000815260040180806020018281038252600f8152602001807f496e76616c6964206974656d204964000000000000000000000000000000000081525060200191505060405180910390fd5b600160008381526020019081526020016000209050919050565b828054600181600116156101000203166002900490600052602060002090601f016020900481019282601f10610bc857805160ff1916838001178555610bf6565b82800160010185558215610bf6579182015b82811115610bf5578251825591602001919060010190610bda565b5b509050610c039190610c07565b5090565b610c2991905b80821115610c25576000816000905550600101610c0d565b5090565b9056fe43616e2774207769746864726177207768696c65206869676865737420626964646572a265627a7a72315820a26ca2d81a4144dbec4f39f5705f95cd5cb3c108c3d868c21ad1e0177831b5e064736f6c63430005100032",
  "source": "// SPDX-License-Identifier: MIT\npragma solidity >=0.4.21 <0.9.0;\n\ncontract AuctionContract {\n    struct AuctionItem {\n        uint highestBid;\n        address highestBidderAddress;\n        mapping(address => uint) bids;\n        address payable lister;\n        string itemName;\n        uint auctionEnd;\n        bool claimed;\n    }\n\n    uint public itemCount;\n    mapping(uint => AuctionItem) public auctionItems;\n\n    function addListing(string memory _itemName, uint _auctionDuration) public {\n        AuctionItem storage item = auctionItems[itemCount];\n        item.highestBid = 0;\n        item.lister = msg.sender;\n        item.itemName = _itemName;\n        item.auctionEnd = block.timestamp + _auctionDuration;\n\n        itemCount += 1;\n    }\n\n    function placeBid(uint _itemId) public payable {\n      AuctionItem storage item = getAuctionItem(_itemId);\n\n      require(item.lister != msg.sender, \"Can't bid on an item you listed\");\n      require(item.auctionEnd > block.timestamp, \"Auction has ended\");\n      require(item.bids[msg.sender] + msg.value > item.highestBid, \"There is a higher bidder\");\n\n      item.bids[msg.sender] += msg.value;\n      item.highestBid = item.bids[msg.sender];\n      item.highestBidderAddress = msg.sender;\n    }\n\n    function withdraw(uint _itemId) public {\n      AuctionItem storage item = getAuctionItem(_itemId);\n\n      if(item.lister == msg.sender) {\n        require(item.auctionEnd < block.timestamp, \"Auction hasn't ended\");\n        require(item.claimed == false, \"Auction funds already claimed\");\n\n        item.claimed = true;\n        msg.sender.transfer(item.highestBid);\n\n      } else {\n        require(item.highestBidderAddress != msg.sender, \"Can't withdraw while highest bidder\");\n        item.bids[msg.sender] = 0;\n        msg.sender.transfer(item.bids[msg.sender]);\n      }\n    }\n\n    function getAuctionItem(uint _itemId) private view returns (AuctionItem storage) {\n      require(_itemId >= 0 && _itemId < itemCount, \"Invalid item Id\");\n      return auctionItems[_itemId];\n    }\n}\n",
  "sourcePath": "F:/Projects/Ethereum/AuctionApp/contracts/AuctionContract.sol",
  "compiler": {
    "name": "solc",
    "version": "0.5.16+commit.9c3226ce.Emscripten.clang"
  },
  "schemaVersion": "3.3.3",
  "updatedAt": "2021-01-13T13:40:14.480Z",
  "networkType": "ethereum",
  "devdoc": {
    "methods": {}
  },
  "userdoc": {
    "methods": {}
  }
}