{
  "contractName": "AuctionContract",
  "abi": [
    {
      "constant": true,
      "inputs": [
        {
          "internalType": "uint256",
          "name": "",
          "type": "uint256"
        }
      ],
      "name": "auctionItems",
      "outputs": [
        {
          "internalType": "uint256",
          "name": "highestBid",
          "type": "uint256"
        },
        {
          "internalType": "address",
          "name": "highestBidderAddress",
          "type": "address"
        },
        {
          "internalType": "address",
          "name": "lister",
          "type": "address"
        },
        {
          "internalType": "string",
          "name": "itemName",
          "type": "string"
        },
        {
          "internalType": "uint256",
          "name": "auctionEnd",
          "type": "uint256"
        }
      ],
      "payable": false,
      "stateMutability": "view",
      "type": "function"
    },
    {
      "constant": true,
      "inputs": [],
      "name": "itemCount",
      "outputs": [
        {
          "internalType": "uint256",
          "name": "",
          "type": "uint256"
        }
      ],
      "payable": false,
      "stateMutability": "view",
      "type": "function"
    },
    {
      "constant": false,
      "inputs": [
        {
          "internalType": "string",
          "name": "_itemName",
          "type": "string"
        },
        {
          "internalType": "uint256",
          "name": "_auctionDuration",
          "type": "uint256"
        }
      ],
      "name": "addListing",
      "outputs": [],
      "payable": false,
      "stateMutability": "nonpayable",
      "type": "function"
    },
    {
      "constant": false,
      "inputs": [
        {
          "internalType": "uint256",
          "name": "_itemId",
          "type": "uint256"
        }
      ],
      "name": "placeBid",
      "outputs": [],
      "payable": true,
      "stateMutability": "payable",
      "type": "function"
    }
  ],
  "bytecode": "0x608060405234801561001057600080fd5b50610698806100206000396000f3fe60806040526004361061003f5760003560e01c80636bfb0d011461004457806381d46f131461006f5780639979ef4514610141578063d2c069f01461016f575b600080fd5b34801561005057600080fd5b50610059610297565b6040518082815260200191505060405180910390f35b34801561007b57600080fd5b5061013f6004803603604081101561009257600080fd5b81019080803590602001906401000000008111156100af57600080fd5b8201836020820111156100c157600080fd5b803590602001918460018302840111640100000000831117156100e357600080fd5b91908080601f016020809104026020016040519081016040528093929190818152602001838380828437600081840152601f19601f8201169050808301925050505050505091929192908035906020019092919050505061029d565b005b61016d6004803603602081101561015757600080fd5b81019080803590602001909291905050506103dd565b005b34801561017b57600080fd5b506101a86004803603602081101561019257600080fd5b81019080803590602001909291905050506104b0565b604051808681526020018573ffffffffffffffffffffffffffffffffffffffff1673ffffffffffffffffffffffffffffffffffffffff1681526020018473ffffffffffffffffffffffffffffffffffffffff1673ffffffffffffffffffffffffffffffffffffffff16815260200180602001838152602001828103825284818151815260200191508051906020019080838360005b8381101561025857808201518184015260208101905061023d565b50505050905090810190601f1680156102855780820380516001836020036101000a031916815260200191505b50965050505050505060405180910390f35b60005481565b6040518060a00160405280600081526020013373ffffffffffffffffffffffffffffffffffffffff1681526020013373ffffffffffffffffffffffffffffffffffffffff16815260200183815260200182420181525060016000805481526020019081526020016000206000820151816000015560208201518160010160006101000a81548173ffffffffffffffffffffffffffffffffffffffff021916908373ffffffffffffffffffffffffffffffffffffffff16021790555060408201518160020160006101000a81548173ffffffffffffffffffffffffffffffffffffffff021916908373ffffffffffffffffffffffffffffffffffffffff16021790555060608201518160030190805190602001906103bb9291906105be565b5060808201518160040155905050600160008082825401925050819055505050565b60008110156103eb57600080fd5b60005481106103f957600080fd5b4260016000838152602001908152602001600020600401541161041b57600080fd5b3460016000838152602001908152602001600020600001541061043d57600080fd5b346001600083815260200190815260200160002060000181905550336001600083815260200190815260200160002060010160006101000a81548173ffffffffffffffffffffffffffffffffffffffff021916908373ffffffffffffffffffffffffffffffffffffffff16021790555050565b60016020528060005260406000206000915090508060000154908060010160009054906101000a900473ffffffffffffffffffffffffffffffffffffffff16908060020160009054906101000a900473ffffffffffffffffffffffffffffffffffffffff1690806003018054600181600116156101000203166002900480601f0160208091040260200160405190810160405280929190818152602001828054600181600116156101000203166002900480156105ae5780601f10610583576101008083540402835291602001916105ae565b820191906000526020600020905b81548152906001019060200180831161059157829003601f168201915b5050505050908060040154905085565b828054600181600116156101000203166002900490600052602060002090601f016020900481019282601f106105ff57805160ff191683800117855561062d565b8280016001018555821561062d579182015b8281111561062c578251825591602001919060010190610611565b5b50905061063a919061063e565b5090565b61066091905b8082111561065c576000816000905550600101610644565b5090565b9056fea265627a7a72315820e303f78b33f0882e42b3a9c3e3320d59100817393d9ba6bc93e4e1e0333558d364736f6c63430005100032",
  "source": "// SPDX-License-Identifier: MIT\npragma solidity >=0.4.21 <0.9.0;\n\ncontract AuctionContract {\n    struct AuctionItem {\n        uint highestBid;\n        address highestBidderAddress;\n        address lister;\n        string itemName;\n        uint auctionEnd;\n    }\n\n    uint public itemCount;\n    mapping(uint => AuctionItem) public auctionItems;\n\n    function addListing(string memory _itemName, uint _auctionDuration) public {\n        auctionItems[itemCount] = AuctionItem(\n            0,\n            msg.sender,\n            msg.sender,\n            _itemName,\n            block.timestamp + _auctionDuration\n        );\n\n        itemCount += 1;\n    }\n\n    function placeBid(uint _itemId) public payable {\n      require(_itemId >= 0);\n      require(_itemId < itemCount);\n      require(auctionItems[_itemId].auctionEnd > block.timestamp);\n      require(auctionItems[_itemId].highestBid < msg.value);\n\n      auctionItems[_itemId].highestBid = msg.value;\n      auctionItems[_itemId].highestBidderAddress = msg.sender;\n    }\n}\n",
  "sourcePath": "F:/Projects/Ethereum/AuctionApp/contracts/AuctionContract.sol",
  "compiler": {
    "name": "solc",
    "version": "0.5.16+commit.9c3226ce.Emscripten.clang"
  },
  "schemaVersion": "3.3.3",
  "updatedAt": "2021-01-09T14:38:18.700Z",
  "networkType": "ethereum",
  "devdoc": {
    "methods": {}
  },
  "userdoc": {
    "methods": {}
  }
}